:10000000B1C00000CEC00000CCC00000CAC00000DB
:10001000C8C00000C6C00000C4C00000C2C00000CC
:10002000C0C00000BEC00000BCC00000BAC00000DC
:10003000B8C00000B6C00000B4C00000B2C00000EC
:1000400034C40000AEC00000ACC00000AAC0000074
:10005000A8C00000A6C00000A4C00000A2C000000C
:10006000A0C000009EC000009CC000009AC000001C
:1000700098C0000096C0000094C0000092C000002C
:1000800090C000008EC000008CC0000020072D072B
:100090002D072D072D072D072D0704072D072D07E9
:1000A0002D072D072D07120787069406A206B00616
:1000B000BE06CC06DA06E806F6062D072D072D0744
:1000C0002D072D072D072D0750065D066B067906B7
:1000D000A608480A480A480A480A480A480A480A34
:1000E000480A480A480A480A480A840849076C0727
:1000F0008F07B207D507F8071B083E086108190AE1
:10010000480A480A480A480A480A480A480A480A5F
:10011000480A480A480A480AF609B408D708FA08FB
:100120001E09420966098A09AE09D20900000400C5
:100130001500040000040404150E040000040E154C
:1001400004040400181C1E1F1E1C18001B1B1B1B74
:100150001B1B1B000000111C0F07130000000A1FCF
:100160001F0E040011241FBECFEFD0E4DEBFCDBFB1
:1001700012E0A0E0B1E0E2EFFCE100E00BBF02C062
:1001800007900D92A23EB107D9F723E0A2EEB2E0AC
:1001900001C01D92A734B207E1F70E94010B0C9435
:1001A000770E2ECF181619065CF008950000215026
:1001B0003109E1F74F5F5F4F8417950719F40895F0
:1001C00040E050E027E033E0F1CF299888B92A9A3F
:1001D00000002A9882E090E0E5CF089581E0F5CF15
:1001E0000895813118F48158F0CF08958155EDCFED
:1001F000089584E690E0D6DF88E3E7DF86E0E5DF78
:100200008FE0E3DF81E0E1DF8AE090E0CBCF08958B
:10021000299A88B92A9A00002A9881E090E0C2CFF2
:1002200008951F93CF93DF93FB019081992351F0A1
:10023000EB0111E0180FD5DF8991EADF812F98815A
:100240009111F7CFDF91CF911F9108950F931F93D5
:10025000CF93DF93182FEB01C1DF8881882351F002
:1002600001E0010F812FBDDF8991D2DF102F88813E
:100270008111F6CFDF91CF911F910F9108952A9AA6
:1002800008952A980895299A2A9A08952A982998CB
:100290000895299888B981E090E084DF299808952D
:1002A00090E0F7DFECDF81E090E07CDFEACF0895BB
:1002B00090E0EFDFE8DF81E090E074DFE7CF0895C2
:1002C000CF93C62F90E0ECDF8C2F90E0F1DFCF9141
:1002D00008950F931F93CF93DF93262F220F220FA2
:1002E000220F2064EC0108E0020FFE01649111E08E
:1002F000120F70E0822F90E0E3DF2196212F101380
:10030000F4CFDF91CF911F910F91089520910101BA
:10031000211128C020910201213021F020912803D1
:10032000253001F520912C031B9909C0213021F4BF
:1003300023E020932C03089510922C03089521119B
:100340000EC022E020932C032091420330914303FE
:100350002F5F3F4F3093430320934203089521E0E2
:1003600020932C030895CF93DF93EC018091020139
:10037000853009F529B189B1807C90E09595879504
:10038000959587952F70822B059790932E038093D8
:100390002D038333910538F44AE050E06BE373E0BA
:1003A0000E943A0E08C04AE050E06BE373E082E33B
:1003B00090E00E943A0ECE01DF91CF910895809196
:1003C0000201823009F4A1C018F4813041F008958F
:1003D000843009F4D3C1853009F407C208958091AF
:1003E0002A03811118C0FADE83EF91E00197F1F73B
:1003F00000C0000067E971E081E090E012DF81E079
:10040000809301018093280381E090E0909385011F
:1004100080938401089580918401909185010A97C9
:1004200029F466EA71E081E090E0FBDE80918401CE
:10043000909185019C012F5F3F4F30938501209360
:100440008401449709F5CADE83EF91E00197F1F743
:1004500000C0000081E0C5DE83E090E0D9DE65EBFE
:1004600071E082E090E0DDDE83E090E0D1DE64ECDC
:1004700071E081E190E0D5DE80E2B3DE87E090E0DC
:10048000C7DE1092010108952531310508F4DFC15E
:1004900080912C03823011F1833009F0D8C19EDEA7
:1004A00083EF91E00197F1F700C0000081E099DE51
:1004B00083E090E0ADDE65EB71E082E090E0B1DEDC
:1004C00083E090E0A5DE64EC71E081E190E0A9DEDC
:1004D00080E287DE87E090E09BCE08956DEC71E0CE
:1004E00082E0B4DE84E090E093DE81E07ADE84E0B6
:1004F00090E08EDE6CED71E081E190E092DE80E2D2
:1005000070DE86E090E084CE0895809128038330E9
:1005100049F128F4882369F0813079F00895863014
:1005200009F4DDC0873009F4F7C0853009F08FC1C8
:1005300033C081E08093280308956AEE71E081E082
:1005400085DE82E08093280381E08093010181E1D0
:1005500090E09093410380934003109234031092F3
:100560003303089564EF71E081E070DE84E08093EE
:1005700028031092430310924203109285011092B7
:10058000840181E190E090934103809340031092B5
:10059000320310923103089580912C038230E1F0F0
:1005A000833059F51BDE83EF91E00197F1F700C02E
:1005B000000081E016DE83E090E02ADE65EB71E06A
:1005C00082E090E02EDE83E090E022DE80E209DE31
:1005D00087E090E01DDE11C06DEC71E082E036DE58
:1005E00084E090E015DE81E0FCDD84E090E010DE48
:1005F00080E2F7DD87E090E00BDE409184015091CE
:1006000085014F5F5F4F50938501409384019A01AC
:10061000ADECBCEC0E942B0E969587959695879530
:10062000969587959C01220F331F880F991F880F7D
:10063000991F880F991F820F931F48175907F9F4C4
:100640008091330390913403019790933403809306
:1006500033034AE050E06BE373E00E943A0E6BE331
:1006600073E089E190E0DDDD809133039091340304
:100670000A9728F465E572E08AE190E0D2DD809186
:100680003103909132039C01220F331F880F991F71
:10069000880F991F880F991F820F931F2091840143
:1006A000309185018217930779F486E080932803BF
:1006B00081E080930101109285011092840180E213
:1006C00090DD86E090E0A4DD8091330390913403C7
:1006D000009709F0BCC087E08093280308958091BB
:1006E0008401909185019C012F5F3F4F30938501DC
:1006F00020938401499709F0AAC010920101109239
:1007000085011092840185E08093280380E269DDF1
:1007100087E090E07DCD089580914203909143035E
:10072000892B29F465E072E081E090DD23C06FE160
:1007300072E081E08BDD4AE050E06BE373E0809192
:100740004203909143030E943A0E6BE373E081E110
:1007500090E067DD80913303909134030A9728F489
:1007600065E572E082E190E05CDD6EE272E084E1DA
:1007700090E057DD88E080932803089580912A0354
:10078000811165C066E372E081E090E04ADD82E0BD
:1007900090E03EDD68E372E083E090E042DD8FE7C9
:1007A00090E036DD6BE372E086E090E03ADD8EE7C4
:1007B00090E02EDD6EE372E089E090E032DD88E0CB
:1007C00090E026DD61E472E08CE090E02ADD85E0D7
:1007D00090E01EDD64E472E08FE090E022DD81E0D5
:1007E0008093010180932803089580912A03811149
:1007F00009C067E572E081E029DD81E080930101B5
:10080000809328036BE373E081E190E00ADD80913F
:100810002D0390912E030A9728F465E572E082E19A
:1008200090E0FFDC80912903811111C08091460383
:100830008B3041F08C3059F466E672E084E190E050
:10084000F0CC08956FE672E084E190E0EACC089580
:1008500060938701709388018093890190938A0146
:100860006093350370933603809337039093380376
:1008700008958BE085BD8DE787BD82E080936E0093
:1008800016BC8091870190918801A0918901B09157
:100890008A018093350390933603A0933703B09376
:1008A00038038FB780688FBF08951F920F920FB6DD
:1008B0000F9211248F939F93AF93BF938091350331
:1008C00090913603A0913703B09138030197A109A5
:1008D000B1098093350390933603A0933703B09307
:1008E0003803892B8A2B8B2B99F481E08093390371
:1008F0008091870190918801A0918901B0918A012E
:100900008093350390933603A0933703B093380355
:10091000BF91AF919F918F910F900FBE0F901F903D
:1009200018958091400390914103893B910559F4BA
:1009300081E090E020914403309145032B3931054B
:1009400021F080E0089580E090E00895E0E8F0E094
:100950008081826A8083E1E8F0E080818B6180831E
:1009600087E893E1909387008093860089EB90E07D
:1009700090934103809340038AB180638AB90895BC
:1009800029EB30E030938900209388008BE990E0D8
:1009900090938B0080938A0030934103209340030F
:1009A000909345038093440308958CE391E09093E2
:1009B00089008093880090934103809340030895B9
:1009C00089EB90E090938900809388009093410395
:1009D00080934003089586E490E09093890080938B
:1009E0008800909341038093400308958CE390E046
:1009F00090938B0080938A009093450380934403E7
:100A000008958AEF90E090938B0080938A009093F2
:100A10004503809344030895905824EA30E74DE15C
:100A200050E40E94BF0D20E030E04EE953E4F0D6E0
:100A3000C4D77093890060938800709341036093DA
:100A400040030895905823E333E343EF5FE30E94AC
:100A5000BF0D20E030E04AE753E4DAD6AED770931A
:100A60008B0060938A007093410360934003089564
:100A7000CF93DF93EC0180910201843089F18530BE
:100A800009F47EC0823009F09FC08091280386302F
:100A900009F09AC08091840190918501019709F035
:100AA00093C080910001813099F068F0823019F094
:100AB000833021F012C01092000185C081E0809344
:100AC000000189DF81C083E08093000179DF7CC071
:100AD00082E08093000174DF77C01092000173C040
:100AE00080914603853031F128F4823041F0843022
:100AF00099F06AC0863041F18830A1F165C08091DB
:100B0000440390914503CC9709F070DF6AE772E0E7
:100B100081E190E086DB58C08091400390914103D1
:100B20008C33914009F041DF67E872E081E190E0A9
:100B300078DB4AC0F6DE892B09F422DF64E972E033
:100B400081E190E06EDB40C08091400390914103D1
:100B50008634910509F03FDF61EA72E081E190E0BF
:100B600060DB32C080914403909145038A3F910538
:100B700009F047DF6EEA72E081E190E052DB24C0C9
:100B8000809146038B3019F08C3079F01DC0609154
:100B90002D0370912E0363337105B0F4660F771F38
:100BA00080E090E036D738DF0FC060912D03709160
:100BB0002E036333710540F4660F771F80E090E0E9
:100BC00028D740DF01C0F1DECE01DF91CF9108953B
:100BD0008FEE82B90000009B3AC0019B3AC0029B95
:100BE0003AC0039B3AC08FED82B90000009B37C02A
:100BF000019B37C0029B37C0039B37C08FEB82B984
:100C00000000009B34C0019B34C0029B34C0039B96
:100C100034C08FE782B90000009904C081E480935A
:100C200086010895019904C082E4809386010895A5
:100C3000029904C083E4809386010895039904C057
:100C400084E480938601089580918601089581E36C
:100C5000089584E3089587E308958AE2089582E37E
:100C6000089585E3089588E3089580E3089583E374
:100C7000089586E3089589E3089583E20895CF9364
:100C8000DF93EC01A5DF80933A03482F50E0FA018F
:100C9000B397E232F10508F0E0C0EA5BFF4FD2C73C
:100CA00080910201813019F480932A03F1C31092DC
:100CB0002A0381E080930201EBC3909102019230FC
:100CC00021F491E090932A03DAC310922A0392E070
:100CD00090930201D4C380910201843021F481E019
:100CE00080932A03D5C310922A0384E080930201E3
:100CF000CFC380910201853021F481E080932A03E3
:100D0000C7C310922A0385E080930201C1C390916A
:100D10004603913019F4909329039FC01092290340
:100D200091E09093460399C090914603923021F44C
:100D300091E09093290391C01092290392E090933F
:100D400046038BC090914603933021F491E0909339
:100D5000290383C01092290393E0909346037DC03A
:100D600090914603943021F491E09093290375C04B
:100D70001092290394E0909346036FC0909146032C
:100D8000953021F491E09093290367C010922903D4
:100D900095E09093460361C090914603963021F40C
:100DA00091E09093290359C01092290396E0909303
:100DB000460353C090914603973021F491E09093FD
:100DC00029034BC01092290397E09093460345C036
:100DD00090914603983021F491E0909329033DC00F
:100DE0001092290398E09093460337C090914603F0
:100DF000993021F491E0909329032FC01092290398
:100E000099E09093460329C0909146039B3021F4CA
:100E100091E09093290321C0109229039BE09093C5
:100E200046031BC0909146039A3021F491E09093C1
:100E3000290313C0109229039AE0909346030DC032
:100E4000909146039C3021F491E09093290305C0D2
:100E5000109229039CE09093460390918301891797
:100E600009F416C390910201923009F011C39091D8
:100E70002803923021F0943009F46CC109C390E04A
:100E8000FC01B397E731F10508F002C3E859FF4FC1
:100E9000D9C680913303909134039C01220F331FF4
:100EA000880F991F880F991F880F991F820F931F12
:100EB0000196909334038093330380914003909183
:100EC00041039C012F5F3F4F309341032093400328
:100ED0006BEB72E0A6D9DCC28091330390913403AE
:100EE0009C01220F331F880F991F880F991F880FAD
:100EF000991F820F931F02969093340380933303BC
:100F000080914003909141039C012F5F3F4F3093AC
:100F100041032093400366E372E083D9B9C2809114
:100F20003303909134039C01220F331F880F991FC4
:100F3000880F991F880F991F820F931F0396909314
:100F400034038093330380914003909141039C01CB
:100F50002F5F3F4F30934103209340036DEB72E0CE
:100F600060D996C280913303909134039C01220F83
:100F7000331F880F991F880F991F880F991F820FA1
:100F8000931F04969093340380933303809140031E
:100F9000909141039C012F5F3F4F30934103209379
:100FA000400369E372E03DD973C2809133039091AD
:100FB00034039C01220F331F880F991F880F991F3C
:100FC000880F991F820F931F059690933403809387
:100FD000330380914003909141039C012F5F3F4F69
:100FE000309341032093400362E472E01AD950C267
:100FF00080913303909134039C01220F331F880F9B
:10100000991F880F991F880F991F820F931F0696AB
:101010009093340380933303809140039091410374
:101020009C012F5F3F4F30934103209340036CE3BB
:1010300072E0F7D82DC280913303909134039C0164
:10104000220F331F880F991F880F991F880F991F30
:10105000820F931F079690933403809333038091FC
:101060004003909141039C012F5F3F4F3093410318
:10107000209340036FEB72E0D4D80AC2809133030F
:10108000909134039C01220F331F880F991F880F02
:10109000991F880F991F820F931F0896909334030E
:1010A0008093330380914003909141039C012F5F13
:1010B0003F4F30934103209340036FE372E0B1D878
:1010C000E7C180913303909134039C01220F331FB9
:1010D000880F991F880F991F880F991F820F931FE0
:1010E0000996909334038093330380914003909149
:1010F00041039C012F5F3F4F3093410320934003F6
:1011000068EE71E08ED8C4C18091330390913403AE
:101110009C01220F331F880F991F880F991F880F7A
:10112000991F820F931F9093340380933303809110
:101130004003909141039C012F5F3F4F3093410347
:101140002093400361EC72E06CD8A2C183E08093ED
:1011500028039EC190E0FC01B397E731F10508F048
:1011600097C1E158FF4F6EC58091310390913203D2
:101170009C01220F331F880F991F880F991F880F1A
:10118000991F820F931F019690933203809331032E
:1011900080914003909141039C012F5F3F4F30931A
:1011A0004103209340036BEB72E03BD871C1809107
:1011B0003103909132039C01220F331F880F991F36
:1011C000880F991F880F991F820F931F0296909383
:1011D00032038093310380914003909141039C013D
:1011E0002F5F3F4F309341032093400366E372E04B
:1011F00018D84EC180913103909132039C01220F87
:10120000331F880F991F880F991F880F991F820F0E
:10121000931F039690933203809331038091400390
:10122000909141039C012F5F3F4F309341032093E6
:1012300040036DEB72E00E9411012AC180913103DD
:10124000909132039C01220F331F880F991F880F42
:10125000991F880F991F820F931F04969093320352
:101260008093310380914003909141039C012F5F53
:101270003F4F309341032093400369E372E00E94A3
:10128000110106C180913103909132039C01220F1C
:10129000331F880F991F880F991F880F991F820F7E
:1012A000931F0596909332038093310380914003FE
:1012B000909141039C012F5F3F4F30934103209356
:1012C000400362E472E00E941101E2C080913103A8
:1012D000909132039C01220F331F880F991F880FB2
:1012E000991F880F991F820F931F069690933203C0
:1012F0008093310380914003909141039C012F5FC3
:101300003F4F30934103209340036CE372E00E940F
:101310001101BEC080913103909132039C01220FD4
:10132000331F880F991F880F991F880F991F820FED
:10133000931F07969093320380933103809140036B
:10134000909141039C012F5F3F4F309341032093C5
:1013500040036FEB72E00E9411019AC0809131034B
:10136000909132039C01220F331F880F991F880F21
:10137000991F880F991F820F931F0896909332032D
:101380008093310380914003909141039C012F5F32
:101390003F4F30934103209340036FE372E00E947C
:1013A000110176C080913103909132039C01220F8C
:1013B000331F880F991F880F991F880F991F820F5D
:1013C000931F0996909332038093310380914003D9
:1013D000909141039C012F5F3F4F30934103209335
:1013E000400368EE71E00E94110152C08091310308
:1013F000909132039C01220F331F880F991F880F91
:10140000991F880F991F820F931F90933203809327
:10141000310380914003909141039C012F5F3F4F26
:10142000309341032093400361EC72E00E9411016C
:101430002FC085E080932803109201010E94EE00E6
:1014400083EF91E00197F1F700C0000081E00E9476
:10145000F10083E090E00E94080165EB71E082E01A
:1014600090E00E94110183E090E00E94080180E278
:101470000E94F10087E090E00E94080109C090916D
:101480008301923429F090912803943009F462CEBC
:1014900080913A0380938301CE01DF91CF9108952B
:1014A000CF92DF92EF92FF926B017C019B01AC0126
:1014B0006091240370912503809126039091270366
:1014C0000BD2882309F452C020E030E0A901C70103
:1014D000B60102D2811106C0E1E9F0E08081887096
:1014E000808305C0E1E9F0E080818360808328E5A6
:1014F00039E344E75FE3C701B601EED188233CF44A
:101500008FEF9FEF909399008093980023C020E085
:1015100034E244EF56E4C701B6012DD318162CF47B
:10152000109299001092980015C020E030E040E041
:1015300053E4C701B60123D39B01AC0160E074E220
:1015400084EF9AE4CDD134D261507109709399003F
:10155000609398001092950010929400C09224031A
:10156000D0922503E0922603F0922703FF90EF909C
:10157000DF90CF900895CF93DF93EC0180912C03FF
:10158000823021F080912B03813021F481E080931F
:101590002B0302C0813031F580912F0390913003ED
:1015A0009C012F5F3F4F3093300320932F03880F10
:1015B000991F880F991FFC01ED5FFE4F60817181BB
:1015C000828193816DDF80912F039091300340974A
:1015D00048F01092300310922F0310922B0380E0FA
:1015E00090E05EDFCE01DF91CF91089580E480939B
:1015F00090008BE08093910060E070E0CB0150CFD1
:101600000895CF93DF93CDB7DEB72C970FB6F8943C
:10161000DEBF0FBECDBF80EF81B98FE082B987EF0B
:1016200084B915B82FEF27B918B88CE0EBE8F1E0D2
:10163000DE01119601900D928A95E1F7E9E1F3E060
:10164000208382E090E0A0E0B0E081839283A383D6
:10165000B48385839683A783B0874FE356E0528790
:101660004187EEE0F3E0208381839283A383B483F8
:1016700085839683A783B08786E891E092878187E8
:10168000E3E0F3E0208381E090E0A0E0B0E081833C
:101690009283A383B48385839683A783B0874BEB20
:1016A0005AE052874187E8EFF2E0208381839283FA
:1016B000A383B48385839683A783B08743EB51E0EC
:1016C00052874187EDEEF2E0208381839283A383EA
:1016D000B48385839683A783B08748E355E0528718
:1016E0004187E2EEF2E0208381839283A383B48377
:1016F00085839683A783B0878FED91E0928781875A
:1017000062E370E080E090E0A3D8B3D86FDF0E947E
:10171000F90063E070E084E591E00E94690162E015
:1017200070E08CE391E00E94690164E070E08CE578
:1017300091E00E94690165E070E08CE291E00E9416
:10174000690166E070E08CE491E00E94690168E064
:1017500070E084E391E00E94690167E070E084E456
:1017600091E00E946901F2D80BD963EC72E081E04C
:101770000E94260187E090E00E94080162ED72E07D
:1017800081E190E00E9411016E018DE0C80ED11C34
:10179000DE0111967D01F701019111917F01D801C0
:1017A00015964D915D916D917C91189711968D9143
:1017B0009D910D90BC91A02D481759076A077B0792
:1017C00081F4F80180810184F285E02D082E000C5F
:1017D000990B0995D8018C93F8011582168217820E
:1017E0001086F80185819681A781B0850196A11D9B
:1017F000B11D85839683A783B087EC14FD0459F649
:10180000809139038823E1F310923903C1CF5058F6
:10181000BB27AA270ED075C166D130F06BD120F05E
:1018200031F49F3F11F41EF45BC10EF4E095E7FB29
:1018300051C1E92F77D180F3BA1762077307840784
:10184000950718F071F49EF58FC10EF4E0950B2EFC
:10185000BA2FA02D0B01B90190010C01CA01A00102
:101860001124FF27591B99F0593F50F4503E68F15D
:101870001A16F040A22F232F342F4427585FF3CF9E
:10188000469537952795A795F0405395C9F77EF46F
:101890001F16BA0B620B730B840BBAF09150A1F0B8
:1018A000FF0FBB1F661F771F881FC2F70EC0BA0F3E
:1018B000621F731F841F48F4879577956795B795C6
:1018C000F7959E3F08F0B3CF9395880F08F09927BE
:1018D000EE0F979587950895D9D008F481E0089583
:1018E0000CD00FC107D140F0FED030F021F45F3FA3
:1018F00019F0F0C0511139C1F3C014D198F39923F4
:10190000C9F35523B1F3951B550BBB27AA276217C3
:101910007307840738F09F5F5F4F220F331F441F08
:10192000AA1FA9F333D00E2E3AF0E0E830D0915040
:101930005040E695001CCAF729D0FE2F27D0660F2D
:10194000771F881FBB1F261737074807AB07B0E86C
:1019500009F0BB0B802DBF01FF2793585F4F2AF082
:101960009E3F510568F0B6C000C15F3FECF3983E62
:10197000DCF3869577956795B795F7959F5FC9F7DF
:10198000880F911D9695879597F90895E1E0660F68
:10199000771F881FBB1F621773078407BA0720F0E1
:1019A000621B730B840BBA0BEE1F88F7E09508954A
:1019B00004D06894B111D9C00895BCD088F09F5765
:1019C00090F0B92F9927B751A0F0D1F0660F771F8B
:1019D000881F991F1AF0BA95C9F712C0B13081F06B
:1019E000C3D0B1E00895C0C0672F782F8827B85FB3
:1019F00039F0B93FCCF3869577956795B395D9F7CC
:101A00003EF490958095709561957F4F8F4F9F4FD5
:101A10000895E89409C097FB3EF4909580957095E1
:101A200061957F4F8F4F9F4F9923A9F0F92F96E92A
:101A3000BB279395F695879577956795B795F1119F
:101A4000F8CFFAF4BB0F11F460FF1BC06F5F7F4F3C
:101A50008F4F9F4F16C0882311F096E911C077234E
:101A600021F09EE8872F762F05C0662371F096E857
:101A7000862F70E060E02AF09A95660F771F881F26
:101A8000DAF7880F9695879597F90895990F0008CA
:101A9000550FAA0BE0E8FEEF16161706E807F90740
:101AA000C0F012161306E407F50798F0621B730BDB
:101AB000840B950B39F40A2661F0232B242B252B5C
:101AC00021F408950A2609F4A140A6958FEF811DFF
:101AD000811D089597F99F6780E870E060E00895A0
:101AE0009FEF80EC089500240A9416161706180636
:101AF0000906089500240A94121613061406050612
:101B00000895092E0394000C11F4882352F0BB0FA2
:101B100040F4BF2B11F460FF04C06F5F7F4F8F4F05
:101B20009F4F089557FD9058440F551F59F05F3F40
:101B300071F04795880F97FB991F61F09F3F79F0EF
:101B400087950895121613061406551FF2CF469571
:101B5000F1DF08C0161617061806991FF1CF8695F3
:101B60007105610508940895E894BB2766277727D7
:101B7000CB0197F908958ADF08F48FEF08950BD011
:101B8000C0CFB1DF28F0B6DF18F0952309F0A2CF5F
:101B9000A7CF1124EACFC6DFA0F3959FD1F3950F0D
:101BA00050E0551F629FF001729FBB27F00DB11DE1
:101BB000639FAA27F00DB11DAA1F649F6627B00D71
:101BC000A11D661F829F2227B00DA11D621F739F5A
:101BD000B00DA11D621F839FA00D611D221F749F68
:101BE0003327A00D611D231F849F600D211D822FAF
:101BF000762F6A2F11249F5750408AF0E1F08823F6
:101C00004AF0EE0FFF1FBB1F661F771F881F915002
:101C10005040A9F79E3F510570F05CCFA6CF5F3FC3
:101C2000ECF3983EDCF3869577956795B795F79535
:101C3000E7959F5FC1F7FE2B880F911D96958795BD
:101C400097F90895EE0FFF1F0024001C0BBE0790AC
:101C5000F691E02D0994A29FB001B39FC001A39F0C
:101C6000700D811D1124911DB29F700D811D1124D5
:101C7000911D08954532510518F4423008F004C012
:101C8000FB011082CB010895BB274A3031F4992320
:101C900022F4BDE2909581959F4F01C0BB27FB01C7
:101CA0005527AA27880F991FAA1FA41710F0A41B55
:101CB00083955051B9F7A05DAA3308F0A95DA193AF
:101CC000009779F7B111B1931192CB0100C0DC01FB
:101CD000FC01672F71917723E1F7329704C07C9163
:101CE0006D9370836291AE17BF07C8F30895F8949F
:021CF000FFCF24
:101CF2000101040000DC43A4D082437BD41244A43B
:101D0200D0244400005C4400005C44000000000059
:101D12000000000000DC43A4D082437BD41244A420
:101D2200D0244400005C4400005C44000000000039
:101D32000000000000DC43A4D082437BD41244A400
:101D4200D0244400005C4400005C44000000000019
:101D52000000000000DC43A4D082437BD41244A4E0
:101D6200D0244400005C4400005C440000000000F9
:101D7200000000431400430100000019030E030396
:101D820003F802ED02E2025374617274696E672015
:101D9200696E203273005374617274696E672069D0
:101DA2006E2031730020506C6179696E6720446F38
:101DB20074412000496E2D67616D652000204865E1
:101DC2006C6C6F2054484552452020005061757359
:101DD200652067616D652046390054696D65287319
:101DE200293A2000526F746174696F6E496E74658E
:101DF2007276616C004E6F7468696E6720776173EA
:101E0200202020202064657465637465642100507D
:101E12004952207472696767657265643A00746931
:101E22006D652873290032002034002036002038E6
:101E320000203500202020202020202020202020CB
:101E42002020202020200046726565206D6F766577
:101E52006D656E742100566572746963616C004829
:101E62006F72697A6F6E74616C004D6F76696E671E
:101E7200207570202020004D6F76696E67206C659A
:101E8200667420004D6F76696E67206D696420204C
:101E9200004D6F76696E67207269676874004D6FD6
:101EA20076696E6720646F776E20003100330037E9
:101EB200003000526F74617461626C652050495247
:101EC200200041647269616E204861726D696E74AE
:021ED2006F009F
:00000001FF
